:100000000A128A11FC2FFF1B0D2883137F188317F8
:100010000008840A0319FF0A08007F087F398A0054
:0A0020000408840A0319FF0A820095
:1003FA0000300A128A110A220A128A1101300A12DC
:10040A008A110A220A128A110800F30083120313BE
:10041A00871173080A128A1124220A128A11831276
:10042A00031387161A30F200F830F100F10B1B2A79
:10043A00F20B1B2A00008312031387120800F00034
:10044A00701C282A292A2D2A831203130816302AF7
:10045A00831203130812F01C332A342A362A881608
:10046A00372A8812701D3A2A3B2A3D2A08173E2A43
:10047A000813F01D412A422A442A8817452A88135C
:10048A000800F501F6016F2A8312031307170230D9
:10049A00F4004530F300A930F200F20B522AF30BB4
:1004AA00522AF40B522A592A8312031307130230D1
:1004BA00F4004530F300A930F200F20B622AF30B84
:1004CA00622AF40B622A692A0130F5070318F60A30
:1004DA000030F6077608803AF2007108803A720214
:1004EA00031D792A70087502031C7C2A7D2A492A71
:1004FA00080083120313A001A101A72A2008790783
:10050A00FC007A08FB000318FB0AA01F8D2AFB03D4
:10051A007B08FD007D0883120313FF007C0884001A
:10052A000A128A1103200A128A110A128A115F23F7
:10053A000A128A11013083120313A0070318A10AB1
:10054A000030A10720087907FC007A08FB0003188D
:10055A00FB0AA01FB12AFB037B08FD007D0883125A
:10056A000313FF007C0884000A128A1103200A126E
:10057A008A11003A031DC22AC32A832A0800F600F8
:10058A007603031DC92ACA2AE72A74087F3EF9009E
:10059A007908F50004300310F50CFF3E031DD02A3C
:1005AA007508F70079080F39F80077080A128A11D6
:1005BA000A220A128A1178080A128A110A220A12CF
:1005CA008A11092B02307606031DEC2AED2A092B23
:1005DA007408BF3EF9007908F50004300310F50CE1
:1005EA00FF3E031DF32A7508F70079080F39F80052
:1005FA0077080A128A110A220A128A1178080A123C
:10060A008A110A220A128A11080000300A128A1173
:10061A0024220A128A1103300A128A110A220A12A1
:10062A008A112130F5007630F400F40B1A2BF50B01
:10063A001A2B000003300A128A110A220A128A119E
:10064A004830F5006C30F400F40B292BF50B292BFC
:10065A00000003300A128A110A220A128A11023091
:10066A000A128A110A220A128A1102300A128A11FD
:10067A000A220A128A1108300A128A110A220A1256
:10068A008A1100300A128A110A220A128A110C30BF
:10069A000A128A110A220A128A1100300A128A11CF
:1006AA000A220A128A1106300A128A110A220A1228
:1006BA008A110800F40074080F39F2007408F0393E
:1006CA00F3008312031387157308F1000430031033
:1006DA00F10CFF3E031D6C2B71080A128A112422A9
:1006EA000A128A118312031387163330F5008230F7
:1006FA00F6000000FF30F5070318F60AFF30F60788
:10070A007608803AFF0080307F02031D8E2B01306D
:10071A007502031C912B922B7E2B831203138712D3
:10072A0072080A128A1124220A128A1183120313E6
:10073A0087163330F7008230F8000000FF30F707E1
:10074A000318F80AFF30F8077808803AFF0080306B
:10075A007F02031DB22B01307702031CB52BB62B87
:10076A00A22B83120313871208008316031388012E
:10077A008701013086008312031386140615881434
:10078A000130A5000030A6008713071208100A12CC
:10079A008A110A230A128A110A128A11FD210A12DF
:1007AA008A11F401F40A01300A128A11C4220A12C7
:1007BA008A11CD30F9008830FA000A128A117E2295
:1007CA000A128A11F401F40A02300A128A11C422A6
:1007DA000A128A11DD30F9008830FA000A128A11E9
:1007EA007E220A128A11063083120313A4001330E0
:1007FA00A300AD30A200A20B002CA30B002CA40B6B
:10080A00002C0A128A11FD210A128A11F401F40A33
:10081A0001300A128A11C4220A128A111230F9000E
:10082A008830FA000A128A117E220A128A11F40109
:10083A00F40A02300A128A11C4220A128A11673093
:10084A00F9008830FA000A128A117E220A128A11E5
:10085A00063083120313A4001330A300AD30A200A4
:10086A00A20B352CA30B352CA40B352C0A128A119A
:10087A00FD210A128A11F401F40A01300A128A11BE
:10088A00C4220A128A110030F9008830FA000A12CA
:10089A008A117E220A128A11F401F40A02300A121B
:1008AA008A11C4220A128A11ED30F9008830FA003E
:1008BA000A128A117E220A128A110730831203133E
:1008CA00A4005830A3005930A200A20B6A2CA30B33
:1008DA006A2CA40B6A2C0B30F40002300A128A111B
:1008EA00C4220A128A11F830F9008830FA000A1272
:1008FA008A117E220A128A11073083120313A40076
:10090A005830A3005930A200A20B892CA30B892CC2
:10091A00A40B892C0C30F40002300A128A11C4226A
:10092A000A128A11F830F9008830FA000A128A117C
:10093A007E220A128A11073083120313A400583048
:10094A00A3005930A200A20BA82CA30BA82CA40B1D
:10095A00A82C0D30F40002300A128A11C4220A129D
:10096A008A11F830F9008830FA000A128A117E22B8
:10097A000A128A11073083120313A4005830A30005
:10098A005930A200A20BC72CA30BC72CA40BC72C4F
:10099A000E30F40002300A128A11C4220A128A1195
:1009AA00F830F9008830FA000A128A117E220A12F7
:1009BA008A110130F0000030F1000A128A11462231
:1009CA000A128A110A128A11FD210A128A11FF2CAF
:1009DA00F401F40A02300A128A11C4220A128A1194
:1009EA005630F9008830FA000A128A117E220A1259
:1009FA008A11052D831203138618042D052DED2C5B
:100A0A0083120313081086180B2D0C2D722F06184B
:100A1A000F2D102D722FF401F40A02300A128A11D6
:100A2A00C4220A128A11AB30F9008830FA000A127D
:100A3A008A117E220A128A110330F0000030F10076
:100A4A000A128A1146220A128A11063083120313E5
:100A5A00A4001330A300AD30A200A20B322DA30BC9
:100A6A00322DA40B322D722FF401F40A02300A122D
:100A7A008A11C4220A128A114530F9008830FA0014
:100A8A000A128A117E220A128A1183120313861805
:100A9A004F2D502D022E25032604031D552D562DAC
:100AAA00022E061C592D5A2D022E063083120313CC
:100ABA00A4001330A300AD30A200A20B622DA30B39
:100ACA00622DA40B622D0230F0000030F1000A12F0
:100ADA008A1146220A128A11F401F40A02300A1211
:100AEA008A11C4220A128A113430F9008830FA00B5
:100AFA000A128A117E220A128A1183120313871795
:100B0A0007164D3083120313A4001930A3004F3087
:100B1A00A200A20B8E2DA30B8E2DA40B8E2D831259
:100B2A00031387130712063083120313A40013302A
:100B3A00A300AD30A200A20BA02DA30BA02DA40BE5
:100B4A00A02D831203130814F401F40A02300A12C6
:100B5A008A11C4220A128A112330F9008830FA0055
:100B6A000A128A117E220A128A11FB2D8618BE2DBC
:100B7A00BF2DFB2DF401F40A02300A128A11C42295
:100B8A000A128A11BC30F9008830FA000A128A1156
:100B9A007E220A128A110330F0000030F1000A1294
:100BAA008A1146220A128A11063083120313A400FC
:100BBA001330A300AD30A200A20BE12DA30BE12D4F
:100BCA00A40BE12DF401F40A02300A128A11C4229C
:100BDA000A128A112330F9008830FA000A128A119F
:100BEA007E220A128A1183120313861483120313B4
:100BFA0006140618012E022EBB2D8618052E062E67
:100C0A00BA2E023025062604031D0C2E0D2EBA2EEE
:100C1A00061C102E112EBA2E063083120313A400BE
:100C2A001330A300AD30A200A20B192EA30B192E6C
:100C3A00A40B192E0230F0000030F1000A128A11BA
:100C4A0046220A128A11F401F40A02300A128A119F
:100C5A00C4220A128A113430F9008830FA000A12C2
:100C6A008A117E220A128A11831203138717071622
:100C7A00333083120313A400BB30A300DF30A20079
:100C8A00A20B452EA30B452EA40B452E831203134C
:100C9A00871307121A3083120313A4005E30A300CD
:100CAA006D30A200A20B572EA30B572EA40B572E62
:100CBA005E2E831203130814F401F40A02300A1296
:100CCA008A11C4220A128A112330F9008830FA00E4
:100CDA000A128A117E220A128A11B32E8618762ED9
:100CEA00772EB32EF401F40A02300A128A11C422B2
:100CFA000A128A11BC30F9008830FA000A128A11E5
:100D0A007E220A128A11063083120313A4001330BA
:100D1A00A300AD30A200A20B902EA30B902EA40B21
:100D2A00902E0330F0000030F1000A128A11462298
:100D3A000A128A11F401F40A02300A128A11C42230
:100D4A000A128A112330F9008830FA000A128A112D
:100D5A007E220A128A118312031386148312031342
:100D6A0006140618B92EBA2E732E8618BD2EBE2E5C
:100D7A00722F033025062604031DC42EC52E722F9A
:100D8A00061CC82EC92E722F063083120313A40024
:100D9A001330A300AD30A200A20BD12EA30BD12E8B
:100DAA00A40BD12E0230F0000030F1000A128A1191
:100DBA0046220A128A11F401F40A02300A128A112E
:100DCA00C4220A128A113430F9008830FA000A1251
:100DDA008A117E220A128A118312031387170716B1
:100DEA004D3083120313A4001930A3004F30A20020
:100DFA00A20BFD2EA30BFD2EA40BFD2E83120313B3
:100E0A00871307121A3083120313A4005E30A3005B
:100E1A006D30A200A20B0F2FA30B0F2FA40B0F2FC5
:100E2A00162F831203130814F401F40A02300A126B
:100E3A008A11C4220A128A112330F9008830FA0072
:100E4A000A128A117E220A128A116B2F86182E2FF5
:100E5A002F2F6B2FF401F40A02300A128A11C422CE
:100E6A000A128A11BC30F9008830FA000A128A1173
:100E7A007E220A128A11063083120313A400133049
:100E8A00A300AD30A200A20B482FA30B482FA40B3E
:100E9A00482F0330F0000030F1000A128A1146226E
:100EAA000A128A11F401F40A02300A128A11C422BF
:100EBA000A128A112330F9008830FA000A128A11BC
:100ECA007E220A128A1183120313861483120313D1
:100EDA0006140618712F722F2B2F8312031306186C
:100EEA00772F782F392D06197B2F7C2F8D2F2508E8
:100EFA00013EA50026080318013E003EA600013067
:100F0A00F0000030F1000A128A1146220A128A11F0
:100F1A008312031325032604031D942F952FA92F4B
:100F2A00071487100711F401F40A01300A128A1112
:100F3A00C4220A128A118930F9008830FA000A128A
:100F4A008A117E220A128A1102308312031325069D
:100F5A002604031DB12FB22FC62F071087140711BD
:100F6A00F401F40A01300A128A11C4220A128A11FF
:100F7A009A30F9008830FA000A128A117E220A127F
:100F8A008A1103308312031325062604031DCE2F6C
:100F9A00CF2FE32F071087100715F401F40A013049
:100FAA000A128A11C4220A128A117830F90088308A
:100FBA00FA000A128A117E220A128A118312031374
:100FCA002608803AFF0080307F02031DEE2F04308E
:100FDA002502031CF12FF22FFF2C01308312031379
:100FEA00A5000030A600FF2C0A128A1100288301EE
:100FFA000A128A11BA2B20342034203420342034A7
:10100A004D3461346334683469346E346534203461
:10101A002034203420342034003420342034203446
:10102A0020342034333420344D344F34443445345E
:10103A002034203420342034203400342034203426
:10104A00203443346F346D3470346C346534743402
:10105A00653464342034203420342034003420347D
:10106A0020342034463469346C346C3469346E3438
:10107A0067342E342E342E34203420342034003475
:10108A002034203420345034753473346834203496
:10109A005334743461347234743420342034203438
:1010AA0000342034203450346C3461346334653471
:1010BA00203442346F34743474346C3465342034DC
:1010CA0020340034203442346F34743474346C3431
:1010DA0065342034463469346C346C3469346E3483
:1010EA0067342034003420344D344F34443445348A
:1010FA002034333420343D342034353430343034E1
:10110A006D346C342034003420344D344F3444343C
:10111A0045342034313420343D34203432343534AB
:10112A0030346D346C342034003420344D344F3430
:10113A00443445342034323420343D34203433347A
:10114A00353430346D346C342034003445347234E0
:10115A0072346F347234213420344E346F34203474
:10116A0042346F34743474346C346534003450341B
:10117A006C3461346334653420344E3465347734E6
:10118A00203442346F34743474346C34653400342B
:10119A00573465346C3463346F346D3465342034B9
:1011AA0074346F3420344E3443344134543400346C
:1011BA00203420344D3454344334453420345734A5
:1011CA006F3472346B34733468346F34703400346F
:1011DA0020342034533474346134723474346934AE
:0A11EA006E34673400342E340034F4
:02400E007A3FF7
:00000001FF
